{
  "_format": "hh-sol-artifact-1",
  "contractName": "Stele",
  "sourceName": "contracts/Stele.sol",
  "abi": [
    {
      "inputs": [
        {
          "internalType": "address",
          "name": "_usdToken",
          "type": "address"
        }
      ],
      "stateMutability": "nonpayable",
      "type": "constructor"
    },
    {
      "anonymous": false,
      "inputs": [
        {
          "indexed": false,
          "internalType": "address",
          "name": "tokenAddress",
          "type": "address"
        }
      ],
      "name": "AddToken",
      "type": "event"
    },
    {
      "anonymous": false,
      "inputs": [
        {
          "indexed": false,
          "internalType": "uint256",
          "name": "challengeId",
          "type": "uint256"
        },
        {
          "indexed": false,
          "internalType": "address",
          "name": "user",
          "type": "address"
        },
        {
          "indexed": false,
          "internalType": "uint256",
          "name": "rewardAmount",
          "type": "uint256"
        }
      ],
      "name": "Claim",
      "type": "event"
    },
    {
      "anonymous": false,
      "inputs": [
        {
          "indexed": false,
          "internalType": "uint256",
          "name": "challengeId",
          "type": "uint256"
        },
        {
          "indexed": false,
          "internalType": "enum ChallengeType",
          "name": "challengeType",
          "type": "uint8"
        },
        {
          "indexed": false,
          "internalType": "uint256",
          "name": "startTime",
          "type": "uint256"
        },
        {
          "indexed": false,
          "internalType": "uint256",
          "name": "endTime",
          "type": "uint256"
        }
      ],
      "name": "Create",
      "type": "event"
    },
    {
      "anonymous": false,
      "inputs": [
        {
          "indexed": false,
          "internalType": "address",
          "name": "tokenAddress",
          "type": "address"
        },
        {
          "indexed": false,
          "internalType": "uint256",
          "name": "amount",
          "type": "uint256"
        },
        {
          "indexed": false,
          "internalType": "uint256",
          "name": "totalRewards",
          "type": "uint256"
        }
      ],
      "name": "DebugJoin",
      "type": "event"
    },
    {
      "anonymous": false,
      "inputs": [
        {
          "indexed": false,
          "internalType": "address",
          "name": "baseToken",
          "type": "address"
        },
        {
          "indexed": false,
          "internalType": "uint128",
          "name": "baseAmount",
          "type": "uint128"
        },
        {
          "indexed": false,
          "internalType": "address",
          "name": "quoteToken",
          "type": "address"
        },
        {
          "indexed": false,
          "internalType": "uint256",
          "name": "quoteAmount",
          "type": "uint256"
        }
      ],
      "name": "DebugTokenPrice",
      "type": "event"
    },
    {
      "anonymous": false,
      "inputs": [
        {
          "indexed": false,
          "internalType": "uint256",
          "name": "newEntryFee",
          "type": "uint256"
        }
      ],
      "name": "EntryFee",
      "type": "event"
    },
    {
      "anonymous": false,
      "inputs": [
        {
          "indexed": false,
          "internalType": "uint256",
          "name": "challengeId",
          "type": "uint256"
        },
        {
          "indexed": false,
          "internalType": "address",
          "name": "user",
          "type": "address"
        }
      ],
      "name": "Join",
      "type": "event"
    },
    {
      "anonymous": false,
      "inputs": [
        {
          "indexed": false,
          "internalType": "uint8",
          "name": "newMaxAssets",
          "type": "uint8"
        }
      ],
      "name": "MaxAssets",
      "type": "event"
    },
    {
      "anonymous": false,
      "inputs": [
        {
          "indexed": true,
          "internalType": "address",
          "name": "previousOwner",
          "type": "address"
        },
        {
          "indexed": true,
          "internalType": "address",
          "name": "newOwner",
          "type": "address"
        }
      ],
      "name": "OwnershipTransferred",
      "type": "event"
    },
    {
      "anonymous": false,
      "inputs": [
        {
          "indexed": false,
          "internalType": "uint256",
          "name": "challengeId",
          "type": "uint256"
        },
        {
          "indexed": false,
          "internalType": "address",
          "name": "user",
          "type": "address"
        },
        {
          "indexed": false,
          "internalType": "uint256",
          "name": "performance",
          "type": "uint256"
        }
      ],
      "name": "Register",
      "type": "event"
    },
    {
      "anonymous": false,
      "inputs": [
        {
          "indexed": false,
          "internalType": "address",
          "name": "tokenAddress",
          "type": "address"
        }
      ],
      "name": "RemoveToken",
      "type": "event"
    },
    {
      "anonymous": false,
      "inputs": [
        {
          "indexed": false,
          "internalType": "uint256[5]",
          "name": "newRewardDistribution",
          "type": "uint256[5]"
        }
      ],
      "name": "RewardRatio",
      "type": "event"
    },
    {
      "anonymous": false,
      "inputs": [
        {
          "indexed": false,
          "internalType": "uint256",
          "name": "newSeedMoney",
          "type": "uint256"
        }
      ],
      "name": "SeedMoney",
      "type": "event"
    },
    {
      "anonymous": false,
      "inputs": [
        {
          "indexed": false,
          "internalType": "uint256",
          "name": "challengeId",
          "type": "uint256"
        },
        {
          "indexed": false,
          "internalType": "address",
          "name": "user",
          "type": "address"
        },
        {
          "indexed": false,
          "internalType": "address",
          "name": "fromAsset",
          "type": "address"
        },
        {
          "indexed": false,
          "internalType": "address",
          "name": "toAsset",
          "type": "address"
        },
        {
          "indexed": false,
          "internalType": "uint256",
          "name": "fromAmount",
          "type": "uint256"
        },
        {
          "indexed": false,
          "internalType": "uint256",
          "name": "fromPriceUSD",
          "type": "uint256"
        },
        {
          "indexed": false,
          "internalType": "uint256",
          "name": "toPriceUSD",
          "type": "uint256"
        },
        {
          "indexed": false,
          "internalType": "uint256",
          "name": "toAmount",
          "type": "uint256"
        }
      ],
      "name": "Swap",
      "type": "event"
    },
    {
      "inputs": [],
      "name": "WETH",
      "outputs": [
        {
          "internalType": "address",
          "name": "",
          "type": "address"
        }
      ],
      "stateMutability": "view",
      "type": "function"
    },
    {
      "inputs": [
        {
          "internalType": "enum ChallengeType",
          "name": "",
          "type": "uint8"
        }
      ],
      "name": "activeChallengesByType",
      "outputs": [
        {
          "internalType": "uint256",
          "name": "",
          "type": "uint256"
        }
      ],
      "stateMutability": "view",
      "type": "function"
    },
    {
      "inputs": [],
      "name": "challengeCounter",
      "outputs": [
        {
          "internalType": "uint256",
          "name": "",
          "type": "uint256"
        }
      ],
      "stateMutability": "view",
      "type": "function"
    },
    {
      "inputs": [
        {
          "internalType": "uint256",
          "name": "",
          "type": "uint256"
        }
      ],
      "name": "challenges",
      "outputs": [
        {
          "internalType": "uint256",
          "name": "id",
          "type": "uint256"
        },
        {
          "internalType": "enum ChallengeType",
          "name": "challengeType",
          "type": "uint8"
        },
        {
          "internalType": "uint256",
          "name": "startTime",
          "type": "uint256"
        },
        {
          "internalType": "uint256",
          "name": "endTime",
          "type": "uint256"
        },
        {
          "internalType": "uint256",
          "name": "totalRewards",
          "type": "uint256"
        },
        {
          "internalType": "uint256",
          "name": "seedMoney",
          "type": "uint256"
        },
        {
          "internalType": "address",
          "name": "usdToken",
          "type": "address"
        },
        {
          "internalType": "uint8",
          "name": "usdTokenDecimals",
          "type": "uint8"
        },
        {
          "internalType": "uint8",
          "name": "maxAssets",
          "type": "uint8"
        },
        {
          "internalType": "address",
          "name": "creator",
          "type": "address"
        },
        {
          "internalType": "uint256",
          "name": "entryFee",
          "type": "uint256"
        }
      ],
      "stateMutability": "view",
      "type": "function"
    },
    {
      "inputs": [
        {
          "internalType": "enum ChallengeType",
          "name": "challengeType",
          "type": "uint8"
        }
      ],
      "name": "createChallenge",
      "outputs": [],
      "stateMutability": "nonpayable",
      "type": "function"
    },
    {
      "inputs": [],
      "name": "entryFee",
      "outputs": [
        {
          "internalType": "uint256",
          "name": "",
          "type": "uint256"
        }
      ],
      "stateMutability": "view",
      "type": "function"
    },
    {
      "inputs": [
        {
          "internalType": "uint256",
          "name": "challengeId",
          "type": "uint256"
        }
      ],
      "name": "getRewards",
      "outputs": [],
      "stateMutability": "nonpayable",
      "type": "function"
    },
    {
      "inputs": [
        {
          "internalType": "address",
          "name": "baseToken",
          "type": "address"
        },
        {
          "internalType": "uint128",
          "name": "baseAmount",
          "type": "uint128"
        },
        {
          "internalType": "address",
          "name": "quoteToken",
          "type": "address"
        }
      ],
      "name": "getTokenPrice",
      "outputs": [
        {
          "internalType": "uint256",
          "name": "",
          "type": "uint256"
        }
      ],
      "stateMutability": "nonpayable",
      "type": "function"
    },
    {
      "inputs": [
        {
          "internalType": "address",
          "name": "",
          "type": "address"
        }
      ],
      "name": "isInvestable",
      "outputs": [
        {
          "internalType": "bool",
          "name": "",
          "type": "bool"
        }
      ],
      "stateMutability": "view",
      "type": "function"
    },
    {
      "inputs": [
        {
          "internalType": "uint256",
          "name": "challengeId",
          "type": "uint256"
        }
      ],
      "name": "joinChallenge",
      "outputs": [],
      "stateMutability": "nonpayable",
      "type": "function"
    },
    {
      "inputs": [],
      "name": "maxAssets",
      "outputs": [
        {
          "internalType": "uint8",
          "name": "",
          "type": "uint8"
        }
      ],
      "stateMutability": "view",
      "type": "function"
    },
    {
      "inputs": [],
      "name": "owner",
      "outputs": [
        {
          "internalType": "address",
          "name": "",
          "type": "address"
        }
      ],
      "stateMutability": "view",
      "type": "function"
    },
    {
      "inputs": [
        {
          "internalType": "uint256",
          "name": "challengeId",
          "type": "uint256"
        }
      ],
      "name": "register",
      "outputs": [],
      "stateMutability": "nonpayable",
      "type": "function"
    },
    {
      "inputs": [
        {
          "internalType": "address",
          "name": "tokenAddress",
          "type": "address"
        }
      ],
      "name": "resetToken",
      "outputs": [],
      "stateMutability": "nonpayable",
      "type": "function"
    },
    {
      "inputs": [
        {
          "internalType": "uint256",
          "name": "",
          "type": "uint256"
        }
      ],
      "name": "rewardDistribution",
      "outputs": [
        {
          "internalType": "uint256",
          "name": "",
          "type": "uint256"
        }
      ],
      "stateMutability": "view",
      "type": "function"
    },
    {
      "inputs": [],
      "name": "seedMoney",
      "outputs": [
        {
          "internalType": "uint256",
          "name": "",
          "type": "uint256"
        }
      ],
      "stateMutability": "view",
      "type": "function"
    },
    {
      "inputs": [
        {
          "internalType": "uint256",
          "name": "_entryFee",
          "type": "uint256"
        }
      ],
      "name": "setEntryFee",
      "outputs": [],
      "stateMutability": "nonpayable",
      "type": "function"
    },
    {
      "inputs": [
        {
          "internalType": "uint256[5]",
          "name": "_rewardDistribution",
          "type": "uint256[5]"
        }
      ],
      "name": "setRewardRatio",
      "outputs": [],
      "stateMutability": "nonpayable",
      "type": "function"
    },
    {
      "inputs": [
        {
          "internalType": "uint256",
          "name": "_seedMoney",
          "type": "uint256"
        }
      ],
      "name": "setSeedMoney",
      "outputs": [],
      "stateMutability": "nonpayable",
      "type": "function"
    },
    {
      "inputs": [
        {
          "internalType": "address",
          "name": "tokenAddress",
          "type": "address"
        }
      ],
      "name": "setToken",
      "outputs": [],
      "stateMutability": "nonpayable",
      "type": "function"
    },
    {
      "inputs": [
        {
          "internalType": "address",
          "name": "_usdToken",
          "type": "address"
        }
      ],
      "name": "setUSDToken",
      "outputs": [],
      "stateMutability": "nonpayable",
      "type": "function"
    },
    {
      "inputs": [
        {
          "internalType": "uint256",
          "name": "challengeId",
          "type": "uint256"
        },
        {
          "internalType": "address",
          "name": "from",
          "type": "address"
        },
        {
          "internalType": "address",
          "name": "to",
          "type": "address"
        },
        {
          "internalType": "uint256",
          "name": "amount",
          "type": "uint256"
        }
      ],
      "name": "swap",
      "outputs": [],
      "stateMutability": "nonpayable",
      "type": "function"
    },
    {
      "inputs": [
        {
          "internalType": "address",
          "name": "newOwner",
          "type": "address"
        }
      ],
      "name": "transferOwnership",
      "outputs": [],
      "stateMutability": "nonpayable",
      "type": "function"
    },
    {
      "inputs": [],
      "name": "uniswapV3Factory",
      "outputs": [
        {
          "internalType": "address",
          "name": "",
          "type": "address"
        }
      ],
      "stateMutability": "view",
      "type": "function"
    },
    {
      "inputs": [],
      "name": "usdToken",
      "outputs": [
        {
          "internalType": "address",
          "name": "",
          "type": "address"
        }
      ],
      "stateMutability": "view",
      "type": "function"
    },
    {
      "inputs": [],
      "name": "usdTokenDecimals",
      "outputs": [
        {
          "internalType": "uint8",
          "name": "",
          "type": "uint8"
        }
      ],
      "stateMutability": "view",
      "type": "function"
    }
  ],
  "bytecode": "0x6080604052600080546001600160a01b03199081167333128a8fc17869897dce68ed026d694621f6fdfd17909155600180549091167342000000000000000000000000000000000000061790553480156200005957600080fd5b50604051620042f3380380620042f38339810160408190526200007c9162000237565b600280546001600160a01b03199081163317909155600380546001600160a01b0384169216821790556040805163313ce56760e01b8152905163313ce56791600480820192602092909190829003018186803b158015620000dc57600080fd5b505afa158015620000f1573d6000803e3d6000fd5b505050506040513d601f19601f8201168201806040525081019062000117919062000267565b6003805460ff60a01b1916600160a01b60ff93909316929092029190911760ff60a81b1916600560a91b1790556103e86004908155600a60059081556040805160a08101825260328152601a6020820152600d918101919091526007606082015260808101929092526200018e91600691620001d8565b5050600180546001600160a01b039081166000908152600b6020526040808220805460ff1990811686179091556003549093168252812080549092169092179055600d556200028a565b82600581019282156200020e579160200282015b828111156200020e578251829060ff16905591602001919060010190620001ec565b506200021c92915062000220565b5090565b5b808211156200021c576000815560010162000221565b60006020828403121562000249578081fd5b81516001600160a01b038116811462000260578182fd5b9392505050565b60006020828403121562000279578081fd5b815160ff8116811462000260578182fd5b614059806200029a6000396000f3fe608060405234801561001057600080fd5b50600436106101ae5760003560e01c8063ad5c4648116100ee578063e448ee2611610097578063f2fde38b11610071578063f2fde38b14610369578063f769e09c1461037c578063f7fed02c14610384578063f897a22b1461038c576101ae565b8063e448ee2614610330578063eb770d0c14610343578063f207564e14610356576101ae565b8063c0d8012c116100c8578063c0d8012c146102f7578063d52d7c6f1461030a578063d64f9bc51461031d576101ae565b8063ad5c4648146102c9578063b4722109146102d1578063b9681cbc146102e4576101ae565b80637a29afe31161015b5780637f7e952a116101355780637f7e952a1461027a5780638da5cb5b1461028f5780638f1d37761461029757806394b2294b146102c1576101ae565b80637a29afe3146102345780637d36f766146102475780637f57834f1461025a576101ae565b8063218fe3a51161018c578063218fe3a5146101f95780635b5491821461020c57806370085be014610221576101ae565b8063072ea61c146101b3578063144fa6d7146101d15780631bf4e7d1146101e6575b600080fd5b6101bb610394565b6040516101c89190613ea8565b60405180910390f35b6101e46101df36600461371b565b61039a565b005b6101bb6101f4366004613753565b61047d565b6101e461020736600461371b565b61066a565b6102146107ef565b6040516101c891906138bc565b6101e461022f366004613846565b61080b565b6101e461024236600461371b565b610fe6565b6101bb610255366004613816565b6110b2565b61026d61026836600461371b565b6110c9565b6040516101c89190613a1a565b6102826110de565b6040516101c89190613ff0565b6102146110ff565b6102aa6102a5366004613816565b61111b565b6040516101c89b9a99989796959493929190613f79565b6102826111b8565b6102146111da565b6101e46102df3660046137b1565b6111f6565b6101e46102f23660046137f7565b611340565b6101e4610305366004613816565b61163c565b6101bb6103183660046137f7565b611a8e565b6101e461032b366004613816565b611aa0565b6101e461033e366004613816565b611b26565b6101e4610351366004613816565b6120a0565b6101e4610364366004613816565b612126565b6101e461037736600461371b565b6123f1565b6101bb61251d565b6101bb612523565b610214612529565b60055481565b60025473ffffffffffffffffffffffffffffffffffffffff1633146103f4576040517f08c379a00000000000000000000000000000000000000000000000000000000081526004016103eb90613aca565b60405180910390fd5b73ffffffffffffffffffffffffffffffffffffffff81166000908152600b60205260409081902080547fffffffffffffffffffffffffffffffffffffffffffffffffffffffffffffff00166001179055517fe473c74f34be27c1464d6624f14a0d7fd4e301cbfa29c3eba425d378c8a7ebe0906104729083906138bc565b60405180910390a150565b60008173ffffffffffffffffffffffffffffffffffffffff168473ffffffffffffffffffffffffffffffffffffffff1614156104cc57506fffffffffffffffffffffffffffffffff8216610663565b604080516060810182526101f48152610bb86020820152612710918101919091526000805b6003811015610621576000805473ffffffffffffffffffffffffffffffffffffffff16631698ee82898887866003811061052757fe5b602002015161ffff166040518463ffffffff1660e01b815260040161054e93929190613935565b60206040518083038186803b15801561056657600080fd5b505afa15801561057a573d6000803e3d6000fd5b505050506040513d601f19601f8201168201806040525081019061059e9190613737565b905073ffffffffffffffffffffffffffffffffffffffff81166105c15750610619565b60006105cc82612545565b905061012c63ffffffff821681106105e457816105e6565b805b915060006105f48484612770565b5090506000610605828c8e8d612ba1565b905080871015610613578096505b50505050505b6001016104f1565b507f36ce98bfdb173adf702292795e7449b33b6e694fe3099205cb5730b833b3cc6386868684604051610657949392919061396a565b60405180910390a19150505b9392505050565b60025473ffffffffffffffffffffffffffffffffffffffff1633146106bb576040517f08c379a00000000000000000000000000000000000000000000000000000000081526004016103eb90613aca565b73ffffffffffffffffffffffffffffffffffffffff8116610708576040517f08c379a00000000000000000000000000000000000000000000000000000000081526004016103eb90613d95565b600380547fffffffffffffffffffffffff00000000000000000000000000000000000000001673ffffffffffffffffffffffffffffffffffffffff8316908117909155604080517f313ce567000000000000000000000000000000000000000000000000000000008152905163313ce56791600480820192602092909190829003018186803b15801561079a57600080fd5b505afa1580156107ae573d6000803e3d6000fd5b505050506040513d601f19601f820116820180604052508101906107d2919061388d565b600360146101000a81548160ff021916908360ff16021790555050565b60005473ffffffffffffffffffffffffffffffffffffffff1681565b6000848152600c602052604090206002810154610854576040517f08c379a00000000000000000000000000000000000000000000000000000000081526004016103eb90613b01565b80600301544210610891576040517f08c379a00000000000000000000000000000000000000000000000000000000081526004016103eb90613c14565b336000908152601e8201602052604090205460ff16156108dd576040517f08c379a00000000000000000000000000000000000000000000000000000000081526004016103eb90613a25565b73ffffffffffffffffffffffffffffffffffffffff84166000908152600b602052604090205460ff1661093c576040517f08c379a00000000000000000000000000000000000000000000000000000000081526004016103eb90613cb9565b73ffffffffffffffffffffffffffffffffffffffff83166000908152600b602052604090205460ff1661099b576040517f08c379a00000000000000000000000000000000000000000000000000000000081526004016103eb90613c82565b336000908152601d82016020526040902080546109e4576040517f08c379a00000000000000000000000000000000000000000000000000000000081526004016103eb90613b6f565b600080805b8354811015610ab3578773ffffffffffffffffffffffffffffffffffffffff16846000018281548110610a1857fe5b600091825260209091206002909102015473ffffffffffffffffffffffffffffffffffffffff161415610aab5785846000018281548110610a5557fe5b9060005260206000209060020201600101541015610a9f576040517f08c379a00000000000000000000000000000000000000000000000000000000081526004016103eb90613b38565b80915060019250610ab3565b6001016109e9565b5081610aeb576040517f08c379a00000000000000000000000000000000000000000000000000000000081526004016103eb90613a93565b60008773ffffffffffffffffffffffffffffffffffffffff1663313ce5676040518163ffffffff1660e01b815260040160206040518083038186803b158015610b3357600080fd5b505afa158015610b47573d6000803e3d6000fd5b505050506040513d601f19601f82011682018060405250810190610b6b919061388d565b905060008773ffffffffffffffffffffffffffffffffffffffff1663313ce5676040518163ffffffff1660e01b815260040160206040518083038186803b158015610bb557600080fd5b505afa158015610bc9573d6000803e3d6000fd5b505050506040513d601f19601f82011682018060405250810190610bed919061388d565b6006870154909150600090610c21908b9060ff8616600a0a9073ffffffffffffffffffffffffffffffffffffffff1661047d565b6006880154909150600090610c55908b9060ff8616600a0a9073ffffffffffffffffffffffffffffffffffffffff1661047d565b905080828a021015610c6657600080fd5b60008460ff168460ff1610610c92578185850360ff16600a0a848c020281610c8a57fe5b049050610cb2565b8184860360ff16600a0a848c0281610ca657fe5b0481610cae57fe5b0490505b89886000018781548110610cc257fe5b600091825260208220600160029092020101805492909203909155805b8954811015610d76578c73ffffffffffffffffffffffffffffffffffffffff168a6000018281548110610d0e57fe5b600091825260209091206002909102015473ffffffffffffffffffffffffffffffffffffffff161415610d6e57828a6000018281548110610d4b57fe5b600091825260209091206001600290920201810180549092019091559150610d76565b600101610cdf565b5080610e535760068a01548954750100000000000000000000000000000000000000000090910460ff1611610dd7576040517f08c379a00000000000000000000000000000000000000000000000000000000081526004016103eb90613e3a565b6040805180820190915273ffffffffffffffffffffffffffffffffffffffff8d8116825260208083018581528c5460018082018f5560008f8152939093209451600290910290940180547fffffffffffffffffffffffff0000000000000000000000000000000000000000169490931693909317825591519101555b886000018781548110610e6257fe5b90600052602060002090600202016001015460001415610f9157885489907fffffffffffffffffffffffffffffffffffffffffffffffffffffffffffffffff8101908110610eac57fe5b9060005260206000209060020201896000018881548110610ec957fe5b60009182526020909120825460029092020180547fffffffffffffffffffffffff00000000000000000000000000000000000000001673ffffffffffffffffffffffffffffffffffffffff9092169190911781556001918201549101558854899080610f3157fe5b60008281526020812060027fffffffffffffffffffffffffffffffffffffffffffffffffffffffffffffffff9093019283020180547fffffffffffffffffffffffff00000000000000000000000000000000000000001681556001015590555b7fce2fb8d3c3039c48c9a3ef285c216aac49742b3c61cdadb648864171f0ffd1ca8e338f8f8f898989604051610fce989796959493929190613ed5565b60405180910390a15050505050505050505050505050565b60025473ffffffffffffffffffffffffffffffffffffffff163314611037576040517f08c379a00000000000000000000000000000000000000000000000000000000081526004016103eb90613aca565b73ffffffffffffffffffffffffffffffffffffffff81166000908152600b60205260409081902080547fffffffffffffffffffffffffffffffffffffffffffffffffffffffffffffff00169055517f4eb129c82dcd3eedb52df2b0e6fb4cfa41ac64ee9d63ff081acbb1877e85d79b906104729083906138bc565b600681600581106110c257600080fd5b0154905081565b600b6020526000908152604090205460ff1681565b60035474010000000000000000000000000000000000000000900460ff1681565b60025473ffffffffffffffffffffffffffffffffffffffff1681565b600c60205260009081526040902080546001820154600283015460038401546004850154600586015460068701546007880154600890980154969760ff96871697959694959394929373ffffffffffffffffffffffffffffffffffffffff8084169474010000000000000000000000000000000000000000850481169475010000000000000000000000000000000000000000009004169216908b565b6003547501000000000000000000000000000000000000000000900460ff1681565b60015473ffffffffffffffffffffffffffffffffffffffff1681565b60025473ffffffffffffffffffffffffffffffffffffffff163314611247576040517f08c379a00000000000000000000000000000000000000000000000000000000081526004016103eb90613aca565b6000805b60058110156112bc57600083826005811061126257fe5b60200201351161129e576040517f08c379a00000000000000000000000000000000000000000000000000000000081526004016103eb90613c4b565b8281600581106112aa57fe5b6020020135919091019060010161124b565b50806064146112f7576040517f08c379a00000000000000000000000000000000000000000000000000000000081526004016103eb90613d27565b61130460068360056136aa565b507f563b4eb0f28b3e77e0032af2061a5b88228f31f6634feb1cae57c27823e4606a826040516113349190613a07565b60405180910390a15050565b6000600e600083600481111561135257fe5b600481111561135d57fe5b81526020019081526020016000205490506000600c60008381526020019081526020016000209050806003015442116113c2576040517f08c379a00000000000000000000000000000000000000000000000000000000081526004016103eb90613e71565b600d805460018082019092556000818152600c6020526040902081815580830180549293919287927fffffffffffffffffffffffffffffffffffffffffffffffffffffffffffffff009091169083600481111561141b57fe5b021790555042600282015561142f85612d4a565b42016003828101919091556000600480840182905554600580850191909155825460068501805473ffffffffffffffffffffffffffffffffffffffff9092167fffffffffffffffffffffffff00000000000000000000000000000000000000009283161780825585547fffffffffffffffffffffff00ffffffffffffffffffffffffffffffffffffffff909116740100000000000000000000000000000000000000009182900460ff9081169092021780835595547fffffffffffffffffffff00ffffffffffffffffffffffffffffffffffffffffff9096167501000000000000000000000000000000000000000000968790049091169095029490941790935560078401805433941693909317909255905460088301555b600a8110156115c15760008260090182600a811061156257fe5b0180547fffffffffffffffffffffffff00000000000000000000000000000000000000001673ffffffffffffffffffffffffffffffffffffffff9290921691909117905560006013830182600a81106115b757fe5b0155600101611548565b5081600e60008760048111156115d357fe5b60048111156115de57fe5b8152602001908152602001600020819055507f4ae1db67d3c12379cc205128349f0f8fdad3a5bef01344dd4f6f0706e96d662682868360020154846003015460405161162d9493929190613f53565b60405180910390a15050505050565b60025473ffffffffffffffffffffffffffffffffffffffff16331461168d576040517f08c379a00000000000000000000000000000000000000000000000000000000081526004016103eb90613aca565b6000818152600c6020526040902060028101546116d6576040517f08c379a00000000000000000000000000000000000000000000000000000000081526004016103eb90613b01565b8060030154421015611714576040517f08c379a00000000000000000000000000000000000000000000000000000000081526004016103eb90613e71565b60048082015460068301546040517f70a08231000000000000000000000000000000000000000000000000000000008152919273ffffffffffffffffffffffffffffffffffffffff9091169160009183916370a0823191611777913091016138bc565b60206040518083038186803b15801561178f57600080fd5b505afa1580156117a3573d6000803e3d6000fd5b505050506040513d601f19601f820116820180604052508101906117c7919061382e565b9050828111611802576040517f08c379a00000000000000000000000000000000000000000000000000000000081526004016103eb90613cf0565b600061180c6136e8565b6118146136e8565b6000805b60058160ff1610156118d5576000896009018260ff16600a811061183857fe5b015473ffffffffffffffffffffffffffffffffffffffff16905080156118cc5780858760ff166005811061186857fe5b73ffffffffffffffffffffffffffffffffffffffff9092166020929092020152600660ff83166005811061189857fe5b0154848760ff16600581106118a957fe5b6020020152600660ff8316600581106118be57fe5b015460019096019592909201915b50600101611818565b5060ff841615611a835760005b8460ff168160ff161015611a81576000848260ff166005811061190157fe5b60200201519050600083858460ff166005811061191a57fe5b60200201516064028161192957fe5b04905060006064828d60040154028161193e57fe5b0490508a81111561194c5750895b8015611a76576040517fa9059cbb00000000000000000000000000000000000000000000000000000000815260009073ffffffffffffffffffffffffffffffffffffffff8c169063a9059cbb906119a990879086906004016139b3565b602060405180830381600087803b1580156119c357600080fd5b505af11580156119d7573d6000803e3d6000fd5b505050506040513d601f19601f820116820180604052508101906119fb91906137d7565b905080611a34576040517f08c379a00000000000000000000000000000000000000000000000000000000081526004016103eb90613a5c565b818c039b507f3ed1528b0fdc7c5207c1bf935e34a667e13656b9ed165260c522be0bc544f3038e8584604051611a6c93929190613f27565b60405180910390a1505b5050506001016118e2565b505b505050505050505050565b600e6020526000908152604090205481565b60025473ffffffffffffffffffffffffffffffffffffffff163314611af1576040517f08c379a00000000000000000000000000000000000000000000000000000000081526004016103eb90613aca565b60048190556040517f2e58fb6ef9a674bfa38f9b6ed5df8eaf0fc71e06fd2f241e8b944c40ed0e7a7790610472908390613ea8565b6000818152600c602052604090206002810154611b6f576040517f08c379a00000000000000000000000000000000000000000000000000000000081526004016103eb90613b01565b80600301544210611bac576040517f08c379a00000000000000000000000000000000000000000000000000000000081526004016103eb90613c14565b336000908152601e8201602052604090205460ff1615611bf8576040517f08c379a00000000000000000000000000000000000000000000000000000000081526004016103eb90613a25565b336000908152601d8201602052604090205415611c41576040517f08c379a00000000000000000000000000000000000000000000000000000000081526004016103eb90613ba6565b600681015460088201546040517f70a08231000000000000000000000000000000000000000000000000000000008152606460ff74010000000000000000000000000000000000000000850416600a0a909202919091049173ffffffffffffffffffffffffffffffffffffffff1690829082906370a0823190611cc89033906004016138bc565b60206040518083038186803b158015611ce057600080fd5b505afa158015611cf4573d6000803e3d6000fd5b505050506040513d601f19601f82011682018060405250810190611d18919061382e565b1015611d50576040517f08c379a00000000000000000000000000000000000000000000000000000000081526004016103eb90613d5e565b6040517fdd62ed3e000000000000000000000000000000000000000000000000000000008152829073ffffffffffffffffffffffffffffffffffffffff83169063dd62ed3e90611da690339030906004016138dd565b60206040518083038186803b158015611dbe57600080fd5b505afa158015611dd2573d6000803e3d6000fd5b505050506040513d601f19601f82011682018060405250810190611df6919061382e565b1015611e2e576040517f08c379a00000000000000000000000000000000000000000000000000000000081526004016103eb90613dcc565b6040517f23b872dd00000000000000000000000000000000000000000000000000000000815260009073ffffffffffffffffffffffffffffffffffffffff8316906323b872dd90611e8790339030908890600401613904565b602060405180830381600087803b158015611ea157600080fd5b505af1158015611eb5573d6000803e3d6000fd5b505050506040513d601f19601f82011682018060405250810190611ed991906137d7565b905080611f12576040517f08c379a00000000000000000000000000000000000000000000000000000000081526004016103eb90613e03565b336000908152601d8501602090815260408083208151808301909252600688015473ffffffffffffffffffffffffffffffffffffffff808216845260058a01547401000000000000000000000000000000000000000090920460ff16600a0a909102838501908152825460018082018555848852958720855160029092020180547fffffffffffffffffffffffff0000000000000000000000000000000000000000169190931617825551930192909255600487018054870190558154919290917f71e5dce972f4cffdd77e493a7d128dc4998dc77fd4eb65131cff2a963da8fb09918491611ffd57fe5b60009182526020822060029091020154845473ffffffffffffffffffffffffffffffffffffffff90911691859161203057fe5b9060005260206000209060020201600101548860040154604051612056939291906139d9565b60405180910390a17f2da5c788c7d6057f6fb69078319d8082cfdae75253679e8d00c4c9baafaca9f6873360405161208f929190613eb1565b60405180910390a150505050505050565b60025473ffffffffffffffffffffffffffffffffffffffff1633146120f1576040517f08c379a00000000000000000000000000000000000000000000000000000000081526004016103eb90613aca565b60058190556040517fecf99cfec723551e5242af52252b9b5b79d6f89e50a00a5e30e67b15b417ed8390610472908390613ea8565b6000818152600c60205260409020600281015461216f576040517f08c379a00000000000000000000000000000000000000000000000000000000081526004016103eb90613b01565b806003015442106121ac576040517f08c379a00000000000000000000000000000000000000000000000000000000081526004016103eb90613c14565b336000908152601e8201602052604090205460ff16156121f8576040517f08c379a00000000000000000000000000000000000000000000000000000000081526004016103eb90613a25565b336000908152601d820160205260408120815b815481101561236a57600082600001828154811061222557fe5b600091825260209182902060029091020154604080517f313ce567000000000000000000000000000000000000000000000000000000008152905173ffffffffffffffffffffffffffffffffffffffff9092169263313ce56792600480840193829003018186803b15801561229957600080fd5b505afa1580156122ad573d6000803e3d6000fd5b505050506040513d601f19601f820116820180604052508101906122d1919061388d565b905060006123248460000184815481106122e757fe5b6000918252602090912060029091020154600688015473ffffffffffffffffffffffffffffffffffffffff9182169160ff8616600a0a911661047d565b90506000818360ff16600a0a86600001868154811061233f57fe5b9060005260206000209060020201600101548161235857fe5b0402959095019450505060010161220b565b50612376843384612deb565b336000818152601e850160205260409081902080547fffffffffffffffffffffffffffffffffffffffffffffffffffffffffffffff00166001179055517fa9d44d6e13bb3fee938c3f66d1103e91f8dc6b12d4405a55eea558e8f275aa6e916123e3918791908690613f27565b60405180910390a150505050565b60025473ffffffffffffffffffffffffffffffffffffffff163314612442576040517f08c379a00000000000000000000000000000000000000000000000000000000081526004016103eb90613aca565b73ffffffffffffffffffffffffffffffffffffffff811661248f576040517f08c379a00000000000000000000000000000000000000000000000000000000081526004016103eb90613bdd565b60025460405173ffffffffffffffffffffffffffffffffffffffff8084169216907f8be0079c531659141344cd1fd0a4f28419497f9722a3daafe3b4186f6b6457e090600090a3600280547fffffffffffffffffffffffff00000000000000000000000000000000000000001673ffffffffffffffffffffffffffffffffffffffff92909216919091179055565b60045481565b600d5481565b60035473ffffffffffffffffffffffffffffffffffffffff1681565b60008060008373ffffffffffffffffffffffffffffffffffffffff16633850c7bd6040518163ffffffff1660e01b815260040160e06040518083038186803b15801561259057600080fd5b505afa1580156125a4573d6000803e3d6000fd5b505050506040513d60e08110156125ba57600080fd5b506040810151606090910151909250905061ffff811661263b57604080517f08c379a000000000000000000000000000000000000000000000000000000000815260206004820152600260248201527f4e49000000000000000000000000000000000000000000000000000000000000604482015290519081900360640190fd5b6000808573ffffffffffffffffffffffffffffffffffffffff1663252c09d78461ffff168660010161ffff168161266e57fe5b066040518263ffffffff1660e01b8152600401808261ffff16815260200191505060806040518083038186803b1580156126a757600080fd5b505afa1580156126bb573d6000803e3d6000fd5b505050506040513d60808110156126d157600080fd5b508051606090910151909250905080612765578573ffffffffffffffffffffffffffffffffffffffff1663252c09d760006040518263ffffffff1660e01b81526004018082815260200191505060806040518083038186803b15801561273657600080fd5b505afa15801561274a573d6000803e3d6000fd5b505050506040513d608081101561276057600080fd5b505191505b504203949350505050565b60008063ffffffff83166127e557604080517f08c379a000000000000000000000000000000000000000000000000000000000815260206004820152600260248201527f4250000000000000000000000000000000000000000000000000000000000000604482015290519081900360640190fd5b604080516002808252606082018352600092602083019080368337019050509050838160008151811061281457fe5b602002602001019063ffffffff16908163ffffffff168152505060008160018151811061283d57fe5b63ffffffff9092166020928302919091018201526040517f883bdbfd00000000000000000000000000000000000000000000000000000000815260048101828152835160248301528351600093849373ffffffffffffffffffffffffffffffffffffffff8b169363883bdbfd9388939192839260449091019185820191028083838b5b838110156128d85781810151838201526020016128c0565b505050509050019250505060006040518083038186803b1580156128fb57600080fd5b505afa15801561290f573d6000803e3d6000fd5b505050506040513d6000823e601f3d9081017fffffffffffffffffffffffffffffffffffffffffffffffffffffffffffffffe0168201604090815281101561295657600080fd5b810190808051604051939291908464010000000082111561297657600080fd5b90830190602082018581111561298b57600080fd5b82518660208202830111640100000000821117156129a857600080fd5b82525081516020918201928201910280838360005b838110156129d55781810151838201526020016129bd565b50505050905001604052602001805160405193929190846401000000008211156129fe57600080fd5b908301906020820185811115612a1357600080fd5b8251866020820283011164010000000082111715612a3057600080fd5b82525081516020918201928201910280838360005b83811015612a5d578181015183820152602001612a45565b5050505090500160405250505091509150600082600081518110612a7d57fe5b602002602001015183600181518110612a9257fe5b6020026020010151039050600082600081518110612aac57fe5b602002602001015183600181518110612ac157fe5b60200260200101510390508763ffffffff168260060b81612ade57fe5b05965060008260060b128015612b0857508763ffffffff168260060b81612b0157fe5b0760060b15155b15612b33577fffffffffffffffffffffffffffffffffffffffffffffffffffffffffffffffff909601955b63ffffffff881673ffffffffffffffffffffffffffffffffffffffff0277ffffffffffffffffffffffffffffffffffffffff00000000602083901b1677ffffffffffffffffffffffffffffffffffffffffffffffff821681612b9157fe5b0496505050505050509250929050565b600080612bad8661324a565b90506fffffffffffffffffffffffffffffffff73ffffffffffffffffffffffffffffffffffffffff821611612c7b5773ffffffffffffffffffffffffffffffffffffffff80821680029084811690861610612c3d57612c387801000000000000000000000000000000000000000000000000876fffffffffffffffffffffffffffffffff16836135dd565b612c73565b612c7381876fffffffffffffffffffffffffffffffff1678010000000000000000000000000000000000000000000000006135dd565b925050612d41565b6000612ca773ffffffffffffffffffffffffffffffffffffffff831680680100000000000000006135dd565b90508373ffffffffffffffffffffffffffffffffffffffff168573ffffffffffffffffffffffffffffffffffffffff1610612d0f57612d0a700100000000000000000000000000000000876fffffffffffffffffffffffffffffffff16836135dd565b612d3d565b612d3d81876fffffffffffffffffffffffffffffffff167001000000000000000000000000000000006135dd565b9250505b50949350505050565b600080826004811115612d5957fe5b1415612d69575062093a80612de6565b6001826004811115612d7757fe5b1415612d87575062278d00612de6565b6002826004811115612d9557fe5b1415612da557506276a700612de6565b6003826004811115612db357fe5b1415612dc3575062ed4e00612de6565b6004826004811115612dd157fe5b1415612de257506301e13380612de6565b5060005b919050565b6000838152600c602052604081209080805b600a811015612e5e578573ffffffffffffffffffffffffffffffffffffffff168460090182600a8110612e2c57fe5b015473ffffffffffffffffffffffffffffffffffffffff161415612e565760019250809150612e5e565b600101612dfd565b50811561302257838360130182600a8110612e7557fe5b0155805b801561301c578360130160018203600a8110612e9157fe5b01548460130182600a8110612ea257fe5b01541115612ff0578360090160018203600a8110612ebc57fe5b015473ffffffffffffffffffffffffffffffffffffffff166009850182600a8110612ee357fe5b015473ffffffffffffffffffffffffffffffffffffffff166009860183600a8110612f0a57fe5b0160008760090160018603600a8110612f1f57fe5b01805473ffffffffffffffffffffffffffffffffffffffff9485167fffffffffffffffffffffffff000000000000000000000000000000000000000090911617905581549383166101009190910a908102920219909216179055601384017fffffffffffffffffffffffffffffffffffffffffffffffffffffffffffffffff8201600a8110612faa57fe5b01548460130182600a8110612fbb57fe5b01548560130183600a8110612fcc57fe5b0160008760130160018603600a8110612fe157fe5b01929092559190915550612ff5565b61301c565b7fffffffffffffffffffffffffffffffffffffffffffffffffffffffffffffffff01612e79565b50613242565b601283015473ffffffffffffffffffffffffffffffffffffffff16158061304c5750601c83015484115b15613242576012830180547fffffffffffffffffffffffff00000000000000000000000000000000000000001673ffffffffffffffffffffffffffffffffffffffff8716179055601c830184905560095b8015613240578360130160018203600a81106130b557fe5b01548460130182600a81106130c657fe5b01541115613214578360090160018203600a81106130e057fe5b015473ffffffffffffffffffffffffffffffffffffffff166009850182600a811061310757fe5b015473ffffffffffffffffffffffffffffffffffffffff166009860183600a811061312e57fe5b0160008760090160018603600a811061314357fe5b01805473ffffffffffffffffffffffffffffffffffffffff9485167fffffffffffffffffffffffff000000000000000000000000000000000000000090911617905581549383166101009190910a908102920219909216179055601384017fffffffffffffffffffffffffffffffffffffffffffffffffffffffffffffffff8201600a81106131ce57fe5b01548460130182600a81106131df57fe5b01548560130183600a81106131f057fe5b0160008760130160018603600a811061320557fe5b01929092559190915550613219565b613240565b7fffffffffffffffffffffffffffffffffffffffffffffffffffffffffffffffff0161309d565b505b505050505050565b60008060008360020b12613261578260020b613269565b8260020b6000035b9050620d89e88111156132dd57604080517f08c379a000000000000000000000000000000000000000000000000000000000815260206004820152600160248201527f5400000000000000000000000000000000000000000000000000000000000000604482015290519081900360640190fd5b6000600182166132fe57700100000000000000000000000000000000613310565b6ffffcb933bd6fad37aa2d162d1a5940015b70ffffffffffffffffffffffffffffffffff1690506002821615613344576ffff97272373d413259a46990580e213a0260801c5b6004821615613363576ffff2e50f5f656932ef12357cf3c7fdcc0260801c5b6008821615613382576fffe5caca7e10e4e61c3624eaa0941cd00260801c5b60108216156133a1576fffcb9843d60f6159c9db58835c9266440260801c5b60208216156133c0576fff973b41fa98c081472e6896dfb254c00260801c5b60408216156133df576fff2ea16466c96a3843ec78b326b528610260801c5b60808216156133fe576ffe5dee046a99a2a811c461f1969c30530260801c5b61010082161561341e576ffcbe86c7900a88aedcffc83b479aa3a40260801c5b61020082161561343e576ff987a7253ac413176f2b074cf7815e540260801c5b61040082161561345e576ff3392b0822b70005940c7a398e4b70f30260801c5b61080082161561347e576fe7159475a2c29b7443b29c7fa6e889d90260801c5b61100082161561349e576fd097f3bdfd2022b8845ad8f792aa58250260801c5b6120008216156134be576fa9f746462d870fdf8a65dc1f90e061e50260801c5b6140008216156134de576f70d869a156d2a1b890bb3df62baf32f70260801c5b6180008216156134fe576f31be135f97d08fd981231505542fcfa60260801c5b6201000082161561351f576f09aa508b5b7a84e1c677de54f3e99bc90260801c5b6202000082161561353f576e5d6af8dedb81196699c329225ee6040260801c5b6204000082161561355e576d2216e584f5fa1ea926041bedfe980260801c5b6208000082161561357b576b048a170391f7dc42444e8fa20260801c5b60008460020b13156135b457807fffffffffffffffffffffffffffffffffffffffffffffffffffffffffffffffff816135b057fe5b0490505b6401000000008106156135c85760016135cb565b60005b60ff16602082901c0192505050919050565b600080807fffffffffffffffffffffffffffffffffffffffffffffffffffffffffffffffff85870986860292508281109083900303905080613631576000841161362657600080fd5b508290049050610663565b80841161363d57600080fd5b6000848688096000868103871696879004966002600389028118808a02820302808a02820302808a02820302808a02820302808a02820302808a02909103029181900381900460010186841190950394909402919094039290920491909117919091029150509392505050565b82600581019282156136d8579160200282015b828111156136d85782358255916020019190600101906136bd565b506136e4929150613706565b5090565b6040518060a001604052806005906020820280368337509192915050565b5b808211156136e45760008155600101613707565b60006020828403121561372c578081fd5b813561066381613ffe565b600060208284031215613748578081fd5b815161066381613ffe565b600080600060608486031215613767578182fd5b833561377281613ffe565b925060208401356fffffffffffffffffffffffffffffffff81168114613796578283fd5b915060408401356137a681613ffe565b809150509250925092565b600060a082840312156137c2578081fd5b8260a0830111156137d1578081fd5b50919050565b6000602082840312156137e8578081fd5b81518015158114610663578182fd5b600060208284031215613808578081fd5b813560058110610663578182fd5b600060208284031215613827578081fd5b5035919050565b60006020828403121561383f578081fd5b5051919050565b6000806000806080858703121561385b578081fd5b84359350602085013561386d81613ffe565b9250604085013561387d81613ffe565b9396929550929360600135925050565b60006020828403121561389e578081fd5b815160ff81168114610663578182fd5b600581106138b857fe5b9052565b73ffffffffffffffffffffffffffffffffffffffff91909116815260200190565b73ffffffffffffffffffffffffffffffffffffffff92831681529116602082015260400190565b73ffffffffffffffffffffffffffffffffffffffff9384168152919092166020820152604081019190915260600190565b73ffffffffffffffffffffffffffffffffffffffff938416815291909216602082015262ffffff909116604082015260600190565b73ffffffffffffffffffffffffffffffffffffffff94851681526fffffffffffffffffffffffffffffffff93909316602084015292166040820152606081019190915260800190565b73ffffffffffffffffffffffffffffffffffffffff929092168252602082015260400190565b73ffffffffffffffffffffffffffffffffffffffff9390931683526020830191909152604082015260600190565b60a0818101908383376000815292915050565b901515815260200190565b60208082526001908201527f4300000000000000000000000000000000000000000000000000000000000000604082015260600190565b60208082526003908201527f5254460000000000000000000000000000000000000000000000000000000000604082015260600190565b60208082526003908201527f414e450000000000000000000000000000000000000000000000000000000000604082015260600190565b60208082526002908201527f4e4f000000000000000000000000000000000000000000000000000000000000604082015260600190565b60208082526003908201527f434e450000000000000000000000000000000000000000000000000000000000604082015260600190565b60208082526003908201527f46414d0000000000000000000000000000000000000000000000000000000000604082015260600190565b60208082526003908201527f554e450000000000000000000000000000000000000000000000000000000000604082015260600190565b60208082526002908201527f414a000000000000000000000000000000000000000000000000000000000000604082015260600190565b60208082526002908201527f4e5a000000000000000000000000000000000000000000000000000000000000604082015260600190565b60208082526001908201527f4500000000000000000000000000000000000000000000000000000000000000604082015260600190565b60208082526002908201527f4952000000000000000000000000000000000000000000000000000000000000604082015260600190565b60208082526003908201527f49544f0000000000000000000000000000000000000000000000000000000000604082015260600190565b60208082526002908201527f4946000000000000000000000000000000000000000000000000000000000000604082015260600190565b60208082526003908201527f4e42520000000000000000000000000000000000000000000000000000000000604082015260600190565b60208082526002908201527f4953000000000000000000000000000000000000000000000000000000000000604082015260600190565b60208082526003908201527f4e45420000000000000000000000000000000000000000000000000000000000604082015260600190565b60208082526002908201527f4954000000000000000000000000000000000000000000000000000000000000604082015260600190565b60208082526002908201527f4e41000000000000000000000000000000000000000000000000000000000000604082015260600190565b60208082526002908201527f5446000000000000000000000000000000000000000000000000000000000000604082015260600190565b60208082526002908201527f4641000000000000000000000000000000000000000000000000000000000000604082015260600190565b60208082526002908201527f4e45000000000000000000000000000000000000000000000000000000000000604082015260600190565b90815260200190565b91825273ffffffffffffffffffffffffffffffffffffffff16602082015260400190565b97885273ffffffffffffffffffffffffffffffffffffffff96871660208901529486166040880152929094166060860152608085015260a084019290925260c083019190915260e08201526101000190565b92835273ffffffffffffffffffffffffffffffffffffffff919091166020830152604082015260600190565b84815260808101613f6760208301866138ae565b60408201939093526060015292915050565b8b81526101608101613f8e602083018d6138ae565b604082019a909a526060810198909852608088019690965260a087019490945273ffffffffffffffffffffffffffffffffffffffff92831660c087015260ff91821660e087015216610100850152166101208301526101409091015292915050565b60ff91909116815260200190565b73ffffffffffffffffffffffffffffffffffffffff8116811461402057600080fd5b5056fea2646970667358221220481fc316f3f8b423752b0e04cca6f811192a90b49d4fa168fdca8e0974b60a1964736f6c63430007060033",
  "linkReferences": {},
  "deployedLinkReferences": {}
}